:100000000C9434000C9451000C9451000C94510049
:100010000C9451000C942D010C9451000C9451003F
:100020000C9451000C9451000C9451000C9451000C
:100030000C9451000C9451000C9451000C945100FC
:100040000C9453000C9451000C9451000C945100EA
:100050000C9451000C9451000C9451000C945100DC
:100060000C9451000C94510011241FBECFEFD8E026
:10007000DEBFCDBF11E0A0E0B1E0E4ECFDE202C0E4
:1000800005900D92A839B107D9F722E0A8E9B1E0AF
:1000900001C01D92A733B207E1F70E9471090C94C9
:1000A000E0160C9400001F920F920FB60F921124CD
:1000B0008F939F93AF93BF93EF93FF93F8948091A7
:1000C000E7019091E801A091E901B091EA01019660
:1000D000A11DB11D8093E7019093E801A093E90170
:1000E000B093EA018091E3019091E401A091E501D0
:1000F000B091E6010196A11DB11D8093E30190939B
:10010000E401A093E501B093E601E3EDF1E0808125
:100110009181A281B3810196A11DB11D808391833C
:10012000A283B383E7EDF1E080819181A281B38165
:100130000196A11DB11D80839183A283B383EBED52
:10014000F1E080819181A281B3810196A11DB11D51
:1001500080839183A283B383EFEDF1E0808191816D
:10016000A281B3810196A11DB11D80839183A283D9
:10017000B383E3EBF1E080819181A281B3810196A9
:10018000A11DB11D80839183A283B383E7EBF1E0CE
:1001900080819181A281B3810196A11DB11D8083CF
:1001A0009183A283B383EBEBF1E080819181A28103
:1001B000B3810196A11DB11D80839183A283B38376
:1001C000EFEBF1E080819181A281B3810196A11DC5
:1001D000B11D80839183A283B383E3ECF1E080813E
:1001E0009181A281B3810196A11DB11D808391836C
:1001F000A283B383E7ECF1E080819181A281B38196
:100200000196A11DB11D80839183A283B383EBEC82
:10021000F1E080819181A281B3810196A11DB11D80
:1002200080839183A283B383EFECF1E0808191819D
:10023000A281B3810196A11DB11D80839183A28308
:10024000B3837894FF91EF91BF91AF919F918F917C
:100250000F900FBE0F901F9018951F920F920FB620
:100260000F9211242F938F939F93AF93BF9348992D
:100270007EC010929C01499958C010929D014A99E4
:1002800032C010929E014B9B2BC080919F01811127
:100290001DC021E020939F018091DF019091E0013A
:1002A000A091E101B091E2018093AF019093B00180
:1002B000A093B101B093B2011092DF011092E0015E
:1002C0001092E1011092E20120939B01BF91AF9146
:1002D0009F918F912F910F900FBE0F901F901895A7
:1002E00010929F01F3CF80919E018111CCCF21E02C
:1002F00020939E018091DB019091DC01A091DD01B2
:10030000B091DE018093AB019093AC01A093AD015D
:10031000B093AE011092DB011092DC011092DD016E
:100320001092DE0120939A01AECF80919D01811140
:10033000A6CF21E020939D018091D7019091D80113
:10034000A091D901B091DA018093A7019093A801FF
:10035000A093A901B093AA011092D7011092D801DD
:100360001092D9011092DA012093990188CF8091DF
:100370009C01811180CF21E020939C018091D301C9
:100380009091D401A091D501B091D6018093A301A1
:100390009093A401A093A501B093A6011092D3015C
:1003A0001092D4011092D5011092D6012093980199
:1003B00062CF84E0809368008FE080936D000895A1
:1003C000F8946091E7017091E8018091E9019091C2
:1003D000EA0178940895F8946091E3017091E40142
:1003E0008091E5019091E60178940895F894109237
:1003F000E3011092E4011092E5011092E601789475
:100400000895F8941092E7011092E8011092E90122
:100410001092EA017894089587B1807C87B988B1F9
:10042000807C88B98FE380937E00EAE7F0E080E883
:10043000808380E280937C008081876080838081DC
:10044000806480830895289829982A982B9840E002
:1004500021E030E055B1842F8370B90102C0660FEE
:10046000771F8A95E2F7CB01562B55B97FEF54E6FB
:1004700064E0715050406040E1F700C0000095B169
:100480008095892385B94F5F483021F70895F89406
:100490001092E3011092E4011092E5011092E6013E
:1004A0001092E7011092E8011092E9011092EA011E
:1004B0001092C3011092C4011092C5011092C6019E
:1004C0001092C7011092C8011092C9011092CA017E
:1004D0001092CB011092CC011092CD011092CE015E
:1004E0001092CF011092D0011092D1011092D2013E
:1004F0001092D3011092D4011092D5011092D6011E
:100500001092D7011092D8011092D9011092DA01FD
:100510001092DB011092DC011092DD011092DE01DD
:100520001092DF011092E0011092E1011092E201BD
:100530001092B3011092B4011092B5011092B6015D
:100540001092B7011092B8011092B9011092BA013D
:100550001092BB011092BC011092BD011092BE011D
:100560001092BF011092C0011092C1011092C201FD
:1005700014BC82E085BD16BCEEE6F0E080818160AF
:1005800080837894089524982C9A259A8AB1807F44
:100590008AB98BB1807F8BB98AB18F708AB98BB1E0
:1005A0008F708BB984B18F6084B90895DF92EF9218
:1005B000FF920F931F93CF93DF9385E0D82ED092B5
:1005C000EB0190E1E92EE092EC012FE1F22EF092A6
:1005D000ED010DE20093EE011BE31093EF01D8E46F
:1005E000D093F001C6E5C093F101B3E6B093F201F8
:1005F000A0E7A093F301FDE7F093F401E9E8E093AD
:10060000F50177E97093F60164EA6093F70151EB25
:100610005093F8014FEB4093F9013DEC3093FA0110
:100620002AED2093FB019BEE9093FC018FEF8093CA
:10063000FD01D092FE01E092FF01F09200020093D2
:10064000010210930202D0930302C0930402B093FC
:100650000502A0930602F0930702E093080270934C
:10066000090260930A0250930B0240930C023093EC
:100670000D0220930E0290930F0280931002D092ED
:100680001102E0921202F0921302009314021093EE
:100690001502D0931602C0931702B0931802A093CC
:1006A0001902F0931A02E0931B0270931C026093EC
:1006B0001D0250931E0240931F023093200220938C
:1006C00021029093220280932302D0922402E0928E
:1006D0002502F09226020093270210932802D0935D
:1006E0002902C0932A02B0932B02A0932C02F0930C
:1006F0002D02E0932E0270932F02609330025093EC
:1007000031024093320230933302209334029093AB
:10071000350280933602DF91CF911F910F91FF90A8
:10072000EF90DF900895482F50E093E1899FF0010A
:100730001124E551FE4F20E030E09191961748F4E6
:100740002F5F3F4F23313105C1F7823070F080EFCA
:10075000089583E1849FF001859FF00D1124E20F3D
:10076000F31FE45BFE4F808108958DEE08950F9393
:100770001F938034D9F1803209F455C0803109F4D7
:100780006BC0883011F1843009F47BC0823009F4E9
:1007900083C091E0980F933008F485C08E3F09F430
:1007A00093C08C3F09F497C0883F09F49FC0803FF5
:1007B00009F47CC087FDA4C0A82FBB27A7FDB09576
:1007C0009A01AB010E948E160EC0CB01BA01660FD2
:1007D000771F881F991F660F771F881F991F660F45
:1007E000771F881F991F1F910F910895CB01BA01A0
:1007F000660F771F881F991F660F771F881F991F25
:10080000660F771F881F991F660F771F881F991F14
:10081000660F771F881F991F660F771F881F991F04
:100820001F910F910895CB01BA01660F771F881FA2
:10083000991F660F771F881F991F660F771F881FE4
:10084000991F660F771F881F991F660F771F881FD4
:10085000991F1F910F910895CB01BA01660F771F61
:10086000881F991F660F771F881F991F660F771FB4
:10087000881F991F660F771F881F991F1F910F915F
:100880000895CB01BA01660F771F881F991F660F65
:10089000771F881F991FA7CFCB01BA01660F771F5B
:1008A000881F991FA0CFCB01BA019DCFCB01BA0100
:1008B00034E096958795779567953A95D1F76F5F70
:1008C0007F4F8F4F9F4F8FCFCB01BA019695879562
:1008D0007795679588CFCB01BA01969587957795DF
:1008E000679596958795779567957DCFCB01BA01EA
:1008F00043E096958795779567954A95D1F773CF9D
:10090000282F332721950CF430958901222717FDD4
:100910002095322FCB01BA01A90198010E946C16D3
:10092000CA01B90160CFCF92DF92EF92FF920F938D
:100930001F938A019B01E82FE095E430F0F4413ADF
:1009400051056105710508F449C06AE070E080E076
:1009500090E00A50110921093109EA3F28F40617ED
:1009600017072807390710F4C901B8011F910F9123
:10097000FF90EF90DF90CF900895EE30A0F4CB0180
:10098000BA01F5E09695879577956795FA95D1F731
:10099000013A11052105310548F36A3071058105D9
:1009A000910598F2D6CFE83148F1E23288F5CB01D3
:1009B000BA01B5E09695879577956795BA95D1F781
:1009C0006801790144E0F694E794D794C7944A9576
:1009D000D1F76C0D7D1D8E1D9F1DDACFCB01BA01A5
:1009E000A6E09695879577956795AA95D1F71F917B
:1009F0000F91FF90EF90DF90CF900895CB01BA0157
:100A000054E096958795779567955A95D1F7C0CF1D
:100A1000EC32C8F0E63308F5CB01BA0155E0969503
:100A20008795779567955A95D1F768017901F3E035
:100A3000F694E794D794C794FA95D1F76C0D7D1D81
:100A40008E1D9F1DA5CFCB01BA01A3E0969587957A
:100A500077956795AA95D1F79BCFE034B8F4CB0191
:100A6000BA01B4E09695879577956795BA95D1F7D1
:100A70006801790143E0F694E794D794C7944A95C6
:100A8000D1F76C0D7D1D8E1D9F1D82CFEA3420F5A0
:100A9000CB01BA0154E096958795779567955A955D
:100AA000D1F768017901F3E0F694E794D794C794FD
:100AB000FA95D1F76C0D7D1D8E1D9F1D6801790182
:100AC000A5E0F694E794D794C794AA95D1F76C0D56
:100AD0007D1D8E1D9F1D5CCFE53558F4CB01BA01FD
:100AE0009695879577956795969587957795679568
:100AF0004FCFEE35C0F4CB01BA01A4E096958795AF
:100B000077956795AA95D1F768017901F694E794EE
:100B1000D794C794F694E794D794C7946C0D7D1D31
:100B20008E1D9F1D35CFE836C0F4CB01BA0153E0CE
:100B300096958795779567955A95D1F768017901CC
:100B4000F694E794D794C794F694E794D794C7940F
:100B50006C0D7D1D8E1D9F1D1BCFE23728F5CB012F
:100B6000BA01A3E09695879577956795AA95D1F7F1
:100B700068017901F694E794D794C794F694E794C2
:100B8000D794C7946C0D7D1D8E1D9F1D6801790142
:100B900044E0F694E794D794C7944A95D1F76C0D46
:100BA0007D1D8E1D9F1DF4CEEC3838F4CB01BA01AB
:100BB0009695879577956795EBCEE639A0F4CB01AE
:100BC000BA0145E096958795779567954A95D1F74F
:100BD00068017901F694E794D794C7946C0D7D1D54
:100BE0008E1D9F1DD5CEE03AA0F4CB01BA01A4E042
:100BF0009695879577956795AA95D1F768017901BC
:100C0000F694E794D794C7946C0D7D1D8E1D9F1D9F
:100C1000BFCEEA3A08F5CB01BA01F4E09695879584
:100C200077956795FA95D1F768017901F694E7947D
:100C3000D794C7946C0D7D1D8E1D9F1D6801790191
:100C4000A5E0F694E794D794C794AA95D1F76C0DD4
:100C50007D1D8E1D9F1D9CCEE43BA0F4CB01BA01EF
:100C600043E096958795779567954A95D1F7680102
:100C70007901F694E794D794C7946C0D7D1D8E1D71
:100C80009F1D86CEEE3B50F4CB01BA01B3E09695A2
:100C9000879577956795BA95D1F7C6CFE83C08F563
:100CA000CB01BA0153E096958795779567955A954C
:100CB000D1F768017901F694E794D794C7946C0D45
:100CC0007D1D8E1D9F1D68017901A4E0F694E794B7
:100CD000D794C794AA95D1F76C0D7D1D8E1D9F1DCD
:100CE00057CEE23D70F5CB01BA01F3E096958795BA
:100CF00077956795FA95D1F768017901F694E794AD
:100D0000D794C7946C0D7D1D8E1D9F1D68017901C0
:100D1000B4E0F694E794D794C794BA95D1F76C0DE4
:100D20007D1D8E1D9F1D6801790145E0F694E794B5
:100D3000D794C7944A95D1F76C0D7D1D8E1D9F1DCC
:100D400027CEEC3DA8F4CB01BA019695879577950F
:100D50006795969587957795679568017901F694DB
:100D6000E794D794C7946C0D7D1D8E1D9F1D10CEEA
:100D7000E63E58F4CB01BA0196958795779567952D
:100D8000969587957795679594CFE03F10F5CB01C1
:100D9000BA019695879577956795969587957795F6
:100DA000679568017901F694E794D794C7946C0D20
:100DB0007D1D8E1D9F1D6801790153E0F694E79417
:100DC000D794C7945A95D1F76C0D7D1D8E1D9F1D2C
:100DD000DFCDEA3F78F5CB01BA01969587957795F7
:100DE0006795969587957795679568017901F6944B
:100DF000E794D794C7946C0D7D1D8E1D9F1D6801CF
:100E00007901F3E0F694E794D794C794FA95D1F773
:100E10006C0D7D1D8E1D9F1D68017901A4E0F69467
:100E2000E794D794C794AA95D1F76C0D7D1D8E1DBC
:100E30009F1DAECDB5E07695679557954795BA95C8
:100E4000D1F768017901C41AD50AE60AF70AC70181
:100E5000B6019ECD806280937C0080917A00806490
:100E600080937A0080917A0084FFFCCF80917A0091
:100E7000806180937A0080917900089584E660E033
:100E800091E0960F1C9B692F8150D1F780E090E094
:100E900070E041E050E0282F206220937C002091F8
:100EA0007A00206420937A0020917A0024FFFCCFFE
:100EB00020917A00206120937A00209179002930D6
:100EC00038F49A01082E01C0220F0A94EAF7722B17
:100ED000019684309105F9F68FE39CE90197F1F7CB
:100EE00000C0000084E691E0960F1C99962F692FB0
:100EF0008150C9F7973908F0872F08952F923F92B4
:100F00005F926F927F928F929F92AF92BF92CF9299
:100F1000DF92EF92FF920F931F93CF93DF93CDB7A2
:100F2000DEB7A8970FB6F894DEBF0FBECDBF682E10
:100F3000712C8DEFE82E81E0F82E18A61FA2CC248C
:100F4000C394D12C1E0107E2200E311C55245A9463
:100F5000C3010FA002C0959587950A94E2F780FF20
:100F60005BC156010FA002C0AA0CBB1C0A94E2F799
:100F70009A2C90947FA17062FE01319660E085B159
:100F8000892185B91FEF26E731E01150204030401C
:100F9000E1F700C0000070937C0080917A008064CB
:100FA00080937A0080917A0084FFFCCF80917A0050
:100FB000806180937A00209179004FEF56E781E0BD
:100FC000415050408040E1F700C0000070937C0029
:100FD00080917A00806480937A0080917A0084FF07
:100FE000FCCF80917A00806180937A0080917900B3
:100FF0009FEFA6E7B1E09150A040B040E1F700C0FC
:10100000000070937C0090917A00906490937A0035
:1010100090917A0094FFFCCF90917A009061909328
:101020007A00409179000FEF16E731E0015010404F
:101030003040E1F700C0000070937C0090917A008E
:10104000906490937A0090917A0094FFFCCF9091F5
:101050007A00906190937A003091790090E0820F4D
:10106000911D840F911D830F911D969587959695DF
:10107000879591838083623109F4B7C085B18A294D
:1010800085B9662309F4EFC0613109F4ECC04AE088
:1010900050E08FEF93ECA9E081509040A040E1F741
:1010A00000C00000BFEF06E711E0B1500040104063
:1010B000E1F700C0000070937C0080917A008064AA
:1010C00080937A0080917A0084FFFCCF80917A002F
:1010D000806180937A00209179003FEF86E791E06C
:1010E000315080409040E1F700C0000070937C00D8
:1010F00080917A00806480937A0080917A0084FFE6
:10110000FCCF80917A00806180937A008091790091
:10111000AFEFB6E701E0A150B0400040E1F700C0FA
:10112000000070937C0090917A00906490937A0014
:1011300090917A0094FFFCCF90917A009061909307
:101140007A00309179001FEF96E7A1E011509040AE
:10115000A040E1F700C0000070937C0090917A00FD
:10116000906490937A0090917A0094FFFCCF9091D4
:101170007A00906190937A008090790090E0820FDD
:10118000911D830F911D880D911D969587959695BC
:10119000879520813181821B930B8417950708F472
:1011A00081CF2D9A85B1892185B980E090E01C9B83
:1011B00006C01C99FECF81E090E01C99FACF019601
:1011C00084369105A0F380E090E01C9906C01C9B3A
:1011D000FECF81E090E01C9BFACF0196843691050A
:1011E000A0F32D986F5F3296CACEFE013396A70109
:1011F0004251510989819A8101C0C90121913191DE
:10120000820F931F96958795DA018D93AD01E215B4
:10121000F30599F7F70150820FA118A50F5F1F4F33
:1012200018A70FA313E1E10EF11C2FA138A524305C
:10123000310509F08DCEA8960FB6F894DEBF0FBE2B
:10124000CDBFDF91CF911F910F91FF90EF90DF9075
:10125000CF90BF90AF909F908F907F906F905F9056
:101260003F902F90089545E050E013CF82E090E04A
:101270000E94C01691E08A3A09F090E0892F089503
:101280004CE450E068E070E08BEE91E00C94B01616
:101290008BEE91E0FC01419122E101C0432F31919D
:1012A000431748F42150D1F7439622E08733920741
:1012B00089F781E0089580E00895F999FECF4CE424
:1012C00050E068E070E08BEE91E00E94C816F9995A
:1012D000FECF6AEA82E090E00E94D216F999FECF32
:1012E0000895CF93DF93CDB7DEB7CD54D1400FB67D
:1012F000F894DEBF0FBECDBF9E0127513F4FCB5D9F
:10130000DE4F39832883C552D14080E1D901E82FCF
:101310001D92EA95E9F720513109CD5DDE4F398301
:101320002883C352D140D901E82F1D92EA95E9F7ED
:1013300020513109CF5DDE4F39832883C152D1401E
:10134000D901E82F1D92EA95E9F720513109C15ED4
:10135000DE4F39832883CF51D140D901E82F1D9228
:10136000EA95E9F720513109C35EDE4F39832883BE
:10137000CD51D140D901E82F1D92EA95E9F72051CE
:101380003109C55EDE4F39832883CB51D140D90165
:101390001D928A95E9F7CB5EDE4F188219821A8278
:1013A0001B82C551D14081E0CF5EDE4F8883C151A1
:1013B000D140CE5EDE4F8883C251D140CD5EDE4F3C
:1013C0008883C351D140CC5EDE4F8883C451D14065
:1013D000FE01E35BFF4FC75EDE4FF983E883C9512F
:1013E000D1409CE4492E11924A94E9F7C35FDE4F45
:1013F000188219821A821B82CD50D140E0E0F1E0C0
:10140000DE01119601900D929A95E1F79FE7C75F73
:10141000DE4F9883C950D140C65FDE4F9883CA50D3
:10142000D140C55FDE4F9883CB50D140C45FDE4FC3
:101430009883CC50D140CB5FDE4F9883C550D140CC
:10144000CA5FDE4F9883C650D140C95FDE4F988394
:10145000C750D140C85FDE4F9883C850D140CF5F9E
:10146000DE4F8883C150D140CE5FDE4F8883C250AB
:10147000D140CD5FDE4F8883C350D140CC5FDE4F7B
:101480008883C450D1400E9447020E94C30284E076
:10149000809368008FE080936D000E940C028FE1C2
:1014A0009EE40197F1F700C000008091A2018F7DBA
:1014B0008093A20182E090E00E94C0168A3A11F463
:1014C0000C9428160E94D6020E943E07882331F011
:1014D0000E947E070E945D090E9423020E940C0266
:1014E0008091A201807F8093A201C15CDE4F1882AF
:1014F000CF53D140C05CDE4F1882C054D140CF5B87
:10150000DE4F1882C154D140CE5BDE4F1882C254E8
:10151000D140C75BDE4F1882C954D140C85CDE4F52
:101520001882C853D140CD5BDE4F19821882C35454
:10153000D140C25CDE4F1882CE53D140C35CDE4F37
:101540001882CD53D140C75CDE4F188219821A82AF
:101550001B82C953D140FE01E750FF4FCA5CDE4FEA
:10156000F983E883C653D140CA5CDE4F4880C65336
:10157000D140CB5BDE4F4882C554D140C95CDE4FC1
:101580005880C753D140CA5BDE4F5882C654D14001
:10159000C95BDE4F4882C754D140C85BDE4F5882DA
:1015A000C854D140F89480919801CA5CDE4FA8815C
:1015B000B981C653D1408C938091990111968C9337
:1015C000119780919A0112968C93129780919B01AA
:1015D00013968C937894CB5BDE4F4880C554D140F2
:1015E000CA5CDE4F4882C653D140CA5BDE4F58808A
:1015F000C654D140C95CDE4F5882C753D140C95B45
:10160000DE4F6880C754D140C95DDE4F6882C75243
:10161000D140C85BDE4F7880C854D140C85DDE4FF2
:101620007882C852D1409E0127563F4F4901AE01F2
:10163000435B5F4FCE5CDE4F59834883C253D1403A
:10164000BA015A01CE0187539F4F3C018E010F5FB3
:101650001E4FDE01AB5FBE4FC75DDE4FB983A8836F
:10166000C952D140FE01E755FF4FC35DDE4FF983FC
:10167000E883CD52D1402C583F4FC15DDE4F3983B6
:101680002883CF52D1404C535F4F2A0164597F4F7A
:101690001B01C12CD12CE12CF12CC95DDE4FA8819E
:1016A000B981C752D1408D91C95DDE4FB983A883FE
:1016B000C752D140882309F4DAC6F894F701EE0F37
:1016C000FF1FEE0FFF1FCC5CDE4FF983E883C4538E
:1016D000D1409F012D553E4FF90180819181A2811A
:1016E000B381F30180839183A283B383D701A8568A
:1016F000BE4F1C92D9011D921D921D921C921397F0
:10170000CC5CDE4FE881F981C453D140ED54FE4FEB
:1017100010821182128213827894E9E0F1E0EC0FDA
:10172000FD1FEE0DFF1D3081F601E551FE4F80E0FB
:1017300090E02191231708F01CC701968331910591
:10174000C1F7F1E0FE1510F00C94A51320EFCF5C6B
:10175000DE4F2883C153D140E22FD801EC93D3014F
:101760006D917D918D919C91CF5CDE4F2881C1530D
:10177000D140203111F40C94B413283011F40C949E
:101780001614243011F40C942514223011F40C9406
:1017900033142F5F233010F40C944E14CF5CDE4FC3
:1017A000A881C153D140AE3F11F40C947114AC3FE9
:1017B00011F40C94CD14EA2FA83F11F40C94E51405
:1017C000A03F11F40C94EF14A7FF02C00C941F1556
:1017D000BB27A7FDB0959B01AC010E948E16AB0103
:1017E000BC01D1014D935D936D937C931397C75DBD
:1017F000DE4FE881F981C952D14080810E94930473
:10180000C35DDE4FA881B981CD52D1406D937D93E8
:101810008D939C931397C15DDE4FE881F981CF5280
:10182000D1401082CF5CDE4FF881C153D140F230FD
:10183000D4F4E1E0D201EC93F40180819181A281A2
:10184000B381892B8A2B8B2B71F4F894CC5CDE4FFF
:10185000E881F981C453D140ED53FE4F10821182CB
:10186000128213827894C5014396A1E0B0E0AC0FD8
:10187000BD1FAC0DBD1DF501CC5CDE4F68817981CB
:10188000C453D1406D537E4F5D0130813F5F308343
:10189000D5012D915D01321758F0D8014C91552793
:1018A00047FD509530E04217530709F4CAC510822E
:1018B0003196E817F90749F7CE5CDE4F2881398168
:1018C000C253D140BFEFEB1AFB0AE4E02E0E311CED
:1018D000F4E08F0E911C2C5E3F4FCE5CDE4F3983BF
:1018E0002883C253D14033E1C30ED11C5C0144E0D4
:1018F000640E711C5FEF451A550A0F5F1F4FC75DDD
:10190000DE4F68817981C952D1406F5F7F4FC75DDB
:10191000DE4F79836883C952D140C35DDE4F888131
:101920009981CD52D1400496C35DDE4F998388835F
:10193000CD52D140C15DDE4FA881B981CF52D14097
:101940001196C15DDE4FB983A883CF52D140B4E078
:10195000EB16F10409F0A1CEF8948091B3019091B7
:10196000B401A091B501B091B601C752DF4F888391
:101970009983AA83BB83C95DD0408091B7019091C0
:10198000B801A091B901B091BA01C352DF4F888369
:101990009983AA83BB83CD5DD0408091BB01909198
:1019A000BC01A091BD01B091BE01CF51DF4F888332
:1019B0009983AA83BB83C15ED0408091BF0190917F
:1019C000C001A091C101B091C201CB51DF4F88830A
:1019D0009983AA83BB83C55ED04078944C9B1CC678
:1019E000CE5BDE4F4880C254D1404110D7C6289804
:1019F0002E961FAE2E972F961FAE2F9760961FAE76
:101A0000609761961FAE619762961FAE629763966C
:101A10001FAE639764961FAE649765961FAE659779
:101A200066961FAE669767961FAE679768961FAE5D
:101A3000689769961FAE69976A961FAE6A976B960C
:101A40001FAE6B976C961FAE6C976D961FAE6D9721
:101A50006E961FAE6E976F961FAE6F97A0961FAED5
:101A6000A097C752DF4F88819981AA81BB81C95D48
:101A7000D040C756DF4F88839983AA83BB83C95957
:101A8000D04055245394CB5EDE4F5882C551D1408F
:101A9000CF5EDE4F1882C151D14021E0CE5BDE4FD8
:101AA0002883C254D1404D9BBEC5CF5BDE4F4880DA
:101AB000C154D14041106BC62998A1961FAEA19781
:101AC000A2961FAEA297A3961FAEA397A4961FAE91
:101AD000A497A5961FAEA597A6961FAEA697A79604
:101AE0001FAEA797A8961FAEA897A9961FAEA99755
:101AF000AA961FAEAA97AB961FAEAB97AC961FAE39
:101B0000AC97AD961FAEAD97AE961FAEAE97AF96A3
:101B10001FAEAF97E0961FAEE097E1961FAEE1973C
:101B2000E2961FAEE297E3961FAEE397C352DF4FF4
:101B300088819981AA81BB81CD5DD040C356DF4F9A
:101B400088839983AA83BB83CD59D040552453946D
:101B5000CA5EDE4F5882C651D140CE5EDE4F18823B
:101B6000C251D14021E0CF5BDE4F2883C154D14028
:101B70004E9B60C5C05CDE4F4880C054D1404110D0
:101B80004EC62A98E4961FAEE497E5961FAEE597F9
:101B9000E6961FAEE697E7961FAEE797E8961FAE6C
:101BA000E897E9961FAEE997EA961FAEEA97EB969B
:101BB0001FAEEB97EC961FAEEC97ED961FAEED9730
:101BC000EE961FAEEE97EF961FAEEF97C158DF4F20
:101BD0001882CF57D040C058DF4F1882C058D0402D
:101BE000CF57DF4F1882C158D040CE57DF4F1882F1
:101BF000C258D040CD57DF4F1882C358D040CC5781
:101C0000DF4F1882C458D040CB57DF4F1882C558D9
:101C1000D040CF51DF4F88819981AA81BB81C15EBD
:101C2000D040CF55DF4F88839983AA83BB83C15AA5
:101C3000D04055245394C95EDE4F5882C751D140DD
:101C4000CD5EDE4F1882C351D14021E0C05CDE4F33
:101C50002883C054D14089B190E0880F892F881F14
:101C6000990B892B09F4F4C4C15CDE4F4880CF5333
:101C7000D14041109AC52B98CA57DF4F1882C658D9
:101C8000D040C957DF4F1882C758D040C857DF4FE0
:101C90001882C858D040C757DF4F1882C958D04063
:101CA000C657DF4F1882CA58D040C557DF4F188239
:101CB000CB58D040C457DF4F1882CC58D040C357C0
:101CC000DF4F1882CD58D040C257DF4F1882CE5810
:101CD000D040C157DF4F1882CF58D040C057DF4F98
:101CE0001882C059D040CF56DF4F1882C159D0401A
:101CF000CE56DF4F1882C259D040CD56DF4F1882E2
:101D0000C359D040CC56DF4F1882C459D040CB566F
:101D1000DF4F1882C559D040CA56DF4F1882C659C6
:101D2000D040C956DF4F1882C759D040C856DF4F40
:101D30001882C859D040CB51DF4F88819981AA8140
:101D4000BB81C55ED040CB55DF4F88839983AA8382
:101D5000BB83C55AD04055245394C85EDE4F588289
:101D6000C851D140CC5EDE4F1882C451D14021E031
:101D7000C15CDE4F2883CF53D140C85CDE4F488121
:101D8000C853D1404F5FC85CDE4F4883C853D14031
:101D9000443008F096C4242F30E0C901880F991F01
:101DA000880F991FE9E9F0E0EC0FFD1FE80FF91F1C
:101DB0004081518162817381411551056105710531
:101DC000F1F0A1E0B1E0AC0FBD1FA20FB31F2C9149
:101DD00022300CF445C5A9EBB0E0AC0FBD1FA80F35
:101DE000B91F8D919D910D90BC91A02D84179507E1
:101DF000A607B70720F41082118212821382F8948A
:101E00008091C3019091C401A091C501B091C60118
:101E1000C751DF4F88839983AA83BB83C95ED040B3
:101E20008091C7019091C801A091C901B091CA01E8
:101E3000C351DF4F88839983AA83BB83CD5ED04093
:101E40008091CB019091CC01A091CD01B091CE01B8
:101E5000CF50DF4F88839983AA83BB83C15FD04073
:101E60008091CF019091D001A091D101B091D20188
:101E7000CB50DF4F88839983AA83BB83C55FD04053
:101E80008091B3019091B401A091B501B091B601D8
:101E9000C752DF4F88839983AA83BB83C95DD04033
:101EA0008091B7019091B801A091B901B091BA01A8
:101EB000C352DF4F88839983AA83BB83CD5DD04013
:101EC0008091BB019091BC01A091BD01B091BE0178
:101ED000CF51DF4F88839983AA83BB83C15ED040F3
:101EE0008091BF019091C001A091C101B091C20148
:101EF000CB51DF4F88839983AA83BB83C55ED040D3
:101F00007894D090A2018E0103501F4FBE016B5EEA
:101F10007E4F4B01CE018F5E9E4F1C01DE01A35F01
:101F2000BE4F5D01FE01E754FF4FC95DDE4FF983EF
:101F3000E883C752D140E0E0F0E020E030E0C35D4C
:101F4000DE4FF983E883CD52D140C22EEFEFD801A6
:101F5000EC93C95DDE4FE881F981C752D140819190
:101F60009191A191B191C95DDE4FF983E883C75288
:101F7000D1400097A105B10509F497C249EE50E0A0
:101F80004C0F5D1FC35DDE4F48805980CD52D1405C
:101F9000440D551DFA014080518062807380C65BFC
:101FA000DE4F488259826A827B82CA54D14049EA14
:101FB000E42EF12CEC0EFD1EC35DDE4F48805980EF
:101FC000CD52D140E40CF51CF70140805180628075
:101FD0007380C65BDE4F488159816A817B81CA5418
:101FE000D140441555056605770550F0EE24E3947D
:101FF000F12C022E01C0EE0C0A94EAF7E094DE20E8
:1020000059E9E52EF12CEC0EFD1EC35DDE4F688113
:102010007981CD52D140E60EF71EF7014080518004
:1020200062807380E9EDEE2EF12CEC0EFD1EE60EC3
:10203000F71EF70140815181628173814415550576
:102040006605770508F43BC2F101F080FF2009F432
:1020500036C2F4011082F1011082F8011082F501FC
:10206000F080FA94F082EE24E394F12C0C2C01C061
:10207000EE0C0A94EAF7DE2845284628472809F09E
:1020800027C2EE24E394FE2CEC0EFD1EE20EF31E9E
:10209000F701F0801F140CF061C32F5F3F4F0F5FFB
:1020A0001F4FC35DDE4F48815981CD52D1404C5FF7
:1020B0005F4FC35DDE4F59834883CD52D1405FEF00
:1020C000A51AB50A6FEF861A960A7FEF271A370A04
:1020D0002430310509F039CFD092A201F894C350D1
:1020E000DF4F8881CD5FD0408F3F59F090E0A0E076
:1020F000B0E08093C3019093C401A093C501B09355
:10210000C601C250DF4F8881CE5FD0408F3F59F06B
:1021100090E0A0E0B0E08093C7019093C801A09345
:10212000C901B093CA01C150DF4F8881CF5FD04051
:102130008F3F59F090E0A0E0B0E08093CB01909306
:10214000CC01A093CD01B093CE01C050DF4F888168
:10215000C050D1408F3F59F090E0A0E0B0E08093B4
:10216000CF019093D001A093D101B093D201789484
:1021700085B1807D9091A201892B85B91C996EC291
:10218000F8948091E7019091E801A091E901B09164
:10219000EA017894C25CDE4F4880CE53D1404110B2
:1021A0001FC3F8941092E7011092E8011092E90120
:1021B0001092EA017894F8941092E3011092E401ED
:1021C0001092E5011092E60178942091A20120621C
:1021D0002093A201C75CDE4F88839983AA83BB83C7
:1021E000C953D14021E0C25CDE4F2883CE53D14099
:1021F000C35CDE4F1882CD53D1402C013D01411408
:1022000051046104710409F44EC2F8948091E30111
:102210009091E401A091E501B091E6017894B301B9
:10222000A201769567955795479584179507A60758
:10223000B70728F02091A2012F7D2093A201C75C4F
:10224000DE4F488059806A807B80C953D140481650
:1022500059066A067B0698F484199509A609B709F8
:10226000F8948093E3019093E401A093E501B09387
:10227000E60178948091A20180628093A201C85CFB
:10228000DE4F2881C853D140233009F08BC9CD5B84
:10229000DE4F48815981C354D1404F5F5F4FCD5BC2
:1022A000DE4F59834883C354D140453051050CF467
:1022B00079C980917A0084FF75C980917A00806124
:1022C00080937A0080917900C75BDE4FD880C95433
:1022D000D140D39457E05D1508F40AC39D2D906258
:1022E00090937C0090917A00906490937A00C75B01
:1022F000DE4F6881C954D140643008F002C3062F14
:1023000010E0E9E0F1E0EC0FFD1FE00FF11F90811C
:10231000891708F0A4C3492F50E0481B51096627CC
:1023200057FD6095762F423051056105710508F41F
:102330003FC3E9E0F1E0EC0FFD1FE00FF11F8083E8
:10234000E1E0F1E0EC0FFD1FE00FF11FC08073E151
:10235000709FF001719FF00D1124E551FE4F20E0B8
:1023600030E006C02F5F3F4F2331310509F489C3A8
:1023700091919817B8F383E1809FF001819FF00D50
:102380001124E20FF31FE45BFE4FA081E1E0F1E0D6
:10239000EC0FFD1FE00FF11FA0837801EE0CFF1C76
:1023A000EE0CFF1CE9ECF0E0EC0FFD1FEE0DFF1D45
:1023B0002081318142815381A03409F4A7C3A03226
:1023C00009F07EC3BA01A901440F551F661F771F8C
:1023D000440F551F661F771F440F551F661F771F39
:1023E000440F551F661F771F440F551F661F771F29
:1023F000E9EBF0E0EC0FFD1FEE0DFF1D4083518374
:1024000062837383E5E0F1E0EC0FFD1FE00FF11F45
:1024100080810E949304E9EAF0E0EC0FFD1FEE0DCD
:10242000FF1D6083718382839383C75BDE4FD882F5
:10243000C954D140CD5BDE4F19821882C354D140BC
:10244000B1C821E0D2012C93D4012D913D914D9141
:102450005C91232B242B252B09F029CAF894DB014E
:102460001D921D921D921C921397789420CAF89485
:10247000F701EE0FFF1FEE0FFF1FED54FE4F4081DF
:102480005181628173817894F30180819181A2816D
:10249000B381880F991FAA1FBB1F84179507A60732
:1024A000B707C8F1C501439607CA81E090E0022E44
:1024B00001C0880F0A94EAF78095D822EECDF40186
:1024C000F080F110C6CD45284628472809F4D9CD1B
:1024D000C65BDE4F488059806A807B80CA54D140F9
:1024E000481659066A067B0608F4D7CDB301A20147
:1024F000481B590B6A0B7B0BD8014C9381E090E091
:102500000C2C01C0880F0A94EAF7F50190819150D4
:102510009083D82AC2CDD1011D921D921D921C928A
:102520001397F4011082118212821382CE5CDE4F67
:10253000A881B981C253D1401C92EDE4F0E0EC0FC8
:10254000FD1FEC0DFD1D1182128213821482158273
:1025500016821782108611861286138614861586B7
:1025600016861786108A118A128AC50143969D0124
:10257000A9C9B3E1BE9DF001BF9DF00D1124E80F84
:10258000F91FE45BFE4F2081CF5CDE4F2883C153EF
:10259000D140D8012C93F3016081718182819381B4
:1025A000203409F496C0203209F0DEC8AB01BC012A
:1025B000440F551F661F771F440F551F661F771F57
:1025C000440F551F661F771F440F551F661F771F47
:1025D000440F551F661F771FF101408351836283AB
:1025E0007383C75DDE4FA881B981C952D1408C91F8
:1025F0000E949304C35DDE4FE881F981CD52D14042
:102600006083718382839383C15DDE4FA881B9812A
:10261000CF52D1401C9227C9CE5BDE4F1882C254E4
:10262000D1404D9942CACF5BDE4F1882C154D14090
:102630004E99A0CAC05CDE4F1882C054D14089B107
:1026400090E0880F892F881F990B892B09F00CCBFC
:10265000C15CDE4F1882CF53D1408FCBC35CDE4FBD
:102660004880CD53D1404110A7C08091A2018F7DF9
:102670008093A201C25CDE4F1882CE53D14021E08C
:10268000C35CDE4F2883CD53D140C75CDE4F48800A
:1026900059806A807B80C953D14041145104610440
:1026A000710409F0B2CD8091A2018F7D8093A201C7
:1026B000C75CDE4F188219821A821B82C953D1402F
:1026C000DECD20E030E0C85CDE4F1882C853D14038
:1026D00064CBAB01BC01440F551F661F771F440F2D
:1026E000551F661F771F440F551F661F771F440F26
:1026F000551F661F771F440F551F661F771F440F16
:10270000551F661F771FD1014D935D936D937C9389
:102710001397C75DDE4FE881F981C952D1408081AE
:102720000E949304C35DDE4FA881B981CD52D14090
:102730006D937D938D939C931397C15DDE4FE881DC
:10274000F981CF52D14010828EC8FDEECF5CDE4FB2
:10275000F883C153D140EF2F0C94AD0BF501E0800D
:10276000FE140CF09ACCB4CEAB01BC01440F551F43
:10277000661F771F440F551F661F771F440F551F95
:10278000661F771F440F551F661F771F25CF31E047
:10279000CF5BDE4F3883C154D140EAC931E0CE5B14
:1027A000DE4F3883C254D1407EC931E0C15CDE4F78
:1027B0003883CF53D140E1CAC25CDE4F1882CE537A
:1027C000D14041E0C35CDE4F4883CD53D140C75C6C
:1027D000DE4F488059806A807B80C953D1400FCD3D
:1027E00081389E43A105B10508F444C0F8941092C5
:1027F000E3011092E4011092E5011092E601789451
:102800008091A2018F7D41E0C25CDE4F4883CE53B0
:10281000D140C35CDE4F1882CD53D14046CF31E06A
:10282000C05CDE4F3883C054D14015CAAB01BC0137
:10283000440F551F661F771F440F551F661F771FD4
:10284000440F551F661F771FC7CEAB01BC01440F55
:10285000551F661F771F440F551F661F771FBCCE7D
:10286000A9ECB0E0BACAAB01BC01440F551F661F0A
:10287000771FB2CE31E0C25CDE4F3883CE53D140F9
:10288000C35CDE4F1882CD53D140C75CDE4F488019
:1028900059806A807B80C953D140B1CCAB01BC0167
:1028A000F1014083518362837383C75DDE4FA8814A
:1028B000B981C952D1408C910E949304C35DDE4F0F
:1028C000E881F981CD52D140608371838283938303
:1028D000C15DDE4FA881B981CF52D1401C920C94CA
:1028E000190CAB01BC017695679557954795D8CFE4
:1028F00090E290937C0090917A00906490937A009B
:10290000D12CC75BDE4F0881C954D140045010E080
:10291000E5E0F1E0EC0FFD1FE00FF11F908189175A
:1029200008F0A6C0492F50E0481B5109662757FD03
:102930006095762F4430510561057105C8F1E5E0D9
:10294000F1E0EC0FFD1FE00FF11F8083000F111F5E
:10295000000F111FE9EBF0E0EC0FFD1FE00FF11F7E
:1029600040815181628173810E949304E9EAF0E021
:10297000EC0FFD1FE00FF11F60837183828393834F
:10298000C75BDE4FD882C954D140CD5BDE4F198280
:102990001882C354D1400C94D20AAB01BC01769585
:1029A000679557954795769567955795479578CF4D
:1029B000C75BDE4FD882C954D140CD5BDE4F198250
:1029C0001882C354D1400C94D20AAB01BC01A3E0DD
:1029D0007695679557954795AA95D1F761CFAB0145
:1029E000BC01F4E07695679557954795FA95D1F730
:1029F0004F5F5F4F6F4F7F4FD1014D935D936D934D
:102A00007C931397C75DDE4FE881F981C952D140AD
:102A100080810E949304C35DDE4FA881B981CD52AD
:102A2000D1406D937D938D939C931397C15DDE4F41
:102A3000E881F981CF52D14010820C94190C4E2FAD
:102A4000552741950CF450959A01442737FD409540
:102A5000542F0E946C16BA01A9010C94F10B482F57
:102A600050E0491B5109662757FD6095762F5BCCD6
:102A7000482F50E0491B5109662757FD6095762F76
:102A800059CFC75BDE4F9881C954D140923008F4CA
:102A900058C0A0EFE1E0F1E0EC0FFD1FE00FF11FE7
:102AA000A0837801EE0CFF1CEE0CFF1CE9ECF0E0BB
:102AB000EC0FFD1FEE0DFF1D2081318142815381FE
:102AC000A03109F45AC0A83009F448C0A430D9F1A3
:102AD000A23009F4D4C081E08A0F833008F4F9C031
:102AE000AE3F09F4EFC0AC3F09F4E1C0A83F09F4E0
:102AF000D4C0A03F09F467C0A7FD52C0BB27A7FD03
:102B0000B0950E948E16AB01BC0172CCBA01A9012E
:102B1000440F551F661F771F440F551F661F771FF1
:102B2000440F551F661F771F440F551F661F771FE1
:102B3000440F551F661F771F440F551F661F771FD1
:102B400057CCADEEA7CFBA01A901440F551F661FA0
:102B5000771F440F551F661F771F4ACCBA01A90182
:102B6000440F551F661F771F440F551F661F771FA1
:102B7000440F551F661F771F3BCCBA01A901440FB4
:102B8000551F661F771F440F551F661F771F440F81
:102B9000551F661F771F440F551F661F771F28CCD0
:102BA000EA2FFF27E1950CF4F0954F01AA2497FC3A
:102BB000A094BA2CCA01B901A50194010E946C1617
:102BC000BA01A90115CCBA01A901E4E0769567958F
:102BD00057954795EA95D1F74F5F5F4F6F4F7F4FFE
:102BE000E9EBF0E0EC0FFD1FEE0DFF1D408351837C
:102BF00062837383E5E0F1E0EC0FFD1FE00FF11F4E
:102C000080810E949304E9EAF0E0EC0FFD1FEE0DD5
:102C1000FF1D6083718382839383A0EFCA1609F43A
:102C2000C7CEE9E9F0E0EC0FFD1FEE0DFF1D1082AD
:102C3000118212821382C75BDE4FD882C954D14001
:102C4000CD5BDE4F19821882C354D1400C94D20A56
:102C50004CE450E068E070E08BEE91E00E94B0162A
:102C60008BEE91E0FC01319120E04191341710F09E
:102C70000C94620A2F5F223149F0342FF6CFBA014B
:102C8000A901440F551F661F771FB2CB4396A2E0E0
:102C900087339A0739F70C94640ABA01A901F3E063
:102CA0007695679557954795FA95D1F7A1CBBA01D7
:102CB000A9017695679557954795769567955795A8
:102CC000479596CBBA01A901769567955795479593
:102CD0008FCBBA01A9018CCBA1E21A2EAA1BBB1B78
:102CE000FD010DC0AA1FBB1FEE1FFF1FA217B307D8
:102CF000E407F50720F0A21BB30BE40BF50B661FEE
:102D0000771F881F991F1A9469F7609570958095B1
:102D100090959B01AC01BD01CF010895B7FF0C94C4
:102D200096160E949616821B930B08950E94A11678
:102D3000A59F900DB49F900DA49F800D911D11240F
:102D40000895A29FB001B39FC001A39F700D811D84
:102D50001124911DB29F700D811D1124911D0895A4
:102D6000DC01CB01FC01F999FECF06C0F2BDE1BD4B
:102D7000F89A319600B40D9241505040B8F708953A
:102D8000F999FECF92BD81BDF89A992780B5089533
:102D9000DC01CB0103C02D910E94D316415050405D
:102DA000D0F70895262FF999FECF1FBA92BD81BDA5
:102DB00020BD0FB6F894FA9AF99A0FBE01960895BD
:042DC000F894FFCFB5
:102DC400EDEEEFF0F1F2F3F4F5F6F7F8F9FAFBFCB7
:102DD400FDFE01EDEEEFF0F1F2F3F4F5F6F7F8F99C
:102DE400FAFBFCFDFE01F0F4F8F9FAFBFCFDFE0130
:102DF400020304050607081020F0F4F8F9FAFBFCB6
:102E0400FDFE0102030405060708102001FEFDFC77
:102E1400FBFAF9F8F7F6F5F4F3F2F1F0EFEEED0161
:102E2400FEFDFCFBFAF9F8F7F6F5F4F3F2F1F0EF36
:102E3400EEED20100807060504030201FEFDFCFB6D
:102E4400FAF9F8F4F020100807060504030201FE5D
:082E5400FDFCFBFAF9F8F4F0B3
:00000001FF
